{
  "_format": "hh-sol-artifact-1",
  "contractName": "ProofOfReputation",
  "sourceName": "contracts/ProofOfReputation.sol",
  "abi": [
    {
      "inputs": [],
      "stateMutability": "nonpayable",
      "type": "constructor"
    },
    {
      "anonymous": false,
      "inputs": [
        {
          "indexed": true,
          "internalType": "string",
          "name": "nodeId",
          "type": "string"
        },
        {
          "indexed": true,
          "internalType": "address",
          "name": "registrar",
          "type": "address"
        }
      ],
      "name": "NodeRegistered",
      "type": "event"
    },
    {
      "anonymous": false,
      "inputs": [
        {
          "indexed": true,
          "internalType": "string",
          "name": "nodeId",
          "type": "string"
        },
        {
          "indexed": false,
          "internalType": "bool",
          "name": "success",
          "type": "bool"
        }
      ],
      "name": "ReportSubmitted",
      "type": "event"
    },
    {
      "anonymous": false,
      "inputs": [
        {
          "indexed": true,
          "internalType": "string",
          "name": "nodeId",
          "type": "string"
        },
        {
          "indexed": false,
          "internalType": "uint256",
          "name": "newReputation",
          "type": "uint256"
        },
        {
          "indexed": false,
          "internalType": "uint256",
          "name": "monitoringTrust",
          "type": "uint256"
        },
        {
          "indexed": false,
          "internalType": "uint256",
          "name": "mlScore",
          "type": "uint256"
        }
      ],
      "name": "ReputationUpdated",
      "type": "event"
    },
    {
      "inputs": [],
      "name": "getAllNodes",
      "outputs": [
        {
          "internalType": "string[]",
          "name": "",
          "type": "string[]"
        }
      ],
      "stateMutability": "view",
      "type": "function"
    },
    {
      "inputs": [],
      "name": "getNodeCount",
      "outputs": [
        {
          "internalType": "uint256",
          "name": "",
          "type": "uint256"
        }
      ],
      "stateMutability": "view",
      "type": "function"
    },
    {
      "inputs": [
        {
          "internalType": "string",
          "name": "nodeId",
          "type": "string"
        }
      ],
      "name": "getNodeReputation",
      "outputs": [
        {
          "internalType": "uint256",
          "name": "reputation",
          "type": "uint256"
        },
        {
          "internalType": "uint256",
          "name": "monitoringTrust",
          "type": "uint256"
        },
        {
          "internalType": "uint256",
          "name": "mlScore",
          "type": "uint256"
        },
        {
          "internalType": "uint256",
          "name": "lastUpdated",
          "type": "uint256"
        }
      ],
      "stateMutability": "view",
      "type": "function"
    },
    {
      "inputs": [
        {
          "internalType": "string",
          "name": "nodeId",
          "type": "string"
        }
      ],
      "name": "getNodeStats",
      "outputs": [
        {
          "internalType": "uint256",
          "name": "totalReports",
          "type": "uint256"
        },
        {
          "internalType": "uint256",
          "name": "successfulReports",
          "type": "uint256"
        },
        {
          "internalType": "uint256",
          "name": "successRate",
          "type": "uint256"
        }
      ],
      "stateMutability": "view",
      "type": "function"
    },
    {
      "inputs": [
        {
          "internalType": "uint256",
          "name": "n",
          "type": "uint256"
        }
      ],
      "name": "getTopNodes",
      "outputs": [
        {
          "internalType": "string[]",
          "name": "nodeIds",
          "type": "string[]"
        },
        {
          "internalType": "uint256[]",
          "name": "reputations",
          "type": "uint256[]"
        }
      ],
      "stateMutability": "view",
      "type": "function"
    },
    {
      "inputs": [
        {
          "internalType": "string",
          "name": "nodeId",
          "type": "string"
        }
      ],
      "name": "isNodeRegistered",
      "outputs": [
        {
          "internalType": "bool",
          "name": "isRegistered",
          "type": "bool"
        }
      ],
      "stateMutability": "view",
      "type": "function"
    },
    {
      "inputs": [
        {
          "internalType": "string",
          "name": "",
          "type": "string"
        }
      ],
      "name": "nodes",
      "outputs": [
        {
          "internalType": "string",
          "name": "nodeId",
          "type": "string"
        },
        {
          "internalType": "uint256",
          "name": "reputation",
          "type": "uint256"
        },
        {
          "internalType": "uint256",
          "name": "monitoringTrust",
          "type": "uint256"
        },
        {
          "internalType": "uint256",
          "name": "mlScore",
          "type": "uint256"
        },
        {
          "internalType": "bool",
          "name": "isRegistered",
          "type": "bool"
        },
        {
          "internalType": "uint256",
          "name": "lastUpdated",
          "type": "uint256"
        },
        {
          "internalType": "uint256",
          "name": "totalReports",
          "type": "uint256"
        },
        {
          "internalType": "uint256",
          "name": "successfulReports",
          "type": "uint256"
        }
      ],
      "stateMutability": "view",
      "type": "function"
    },
    {
      "inputs": [],
      "name": "owner",
      "outputs": [
        {
          "internalType": "address",
          "name": "",
          "type": "address"
        }
      ],
      "stateMutability": "view",
      "type": "function"
    },
    {
      "inputs": [
        {
          "internalType": "string",
          "name": "nodeId",
          "type": "string"
        }
      ],
      "name": "registerNode",
      "outputs": [],
      "stateMutability": "nonpayable",
      "type": "function"
    },
    {
      "inputs": [
        {
          "internalType": "uint256",
          "name": "",
          "type": "uint256"
        }
      ],
      "name": "registeredNodes",
      "outputs": [
        {
          "internalType": "string",
          "name": "",
          "type": "string"
        }
      ],
      "stateMutability": "view",
      "type": "function"
    },
    {
      "inputs": [
        {
          "internalType": "string",
          "name": "nodeId",
          "type": "string"
        }
      ],
      "name": "removeNode",
      "outputs": [],
      "stateMutability": "nonpayable",
      "type": "function"
    },
    {
      "inputs": [
        {
          "internalType": "string",
          "name": "nodeId",
          "type": "string"
        },
        {
          "internalType": "bool",
          "name": "success",
          "type": "bool"
        }
      ],
      "name": "submitReport",
      "outputs": [],
      "stateMutability": "nonpayable",
      "type": "function"
    },
    {
      "inputs": [
        {
          "internalType": "address",
          "name": "newOwner",
          "type": "address"
        }
      ],
      "name": "transferOwnership",
      "outputs": [],
      "stateMutability": "nonpayable",
      "type": "function"
    },
    {
      "inputs": [
        {
          "internalType": "string",
          "name": "nodeId",
          "type": "string"
        },
        {
          "internalType": "uint256",
          "name": "monitoringTrust",
          "type": "uint256"
        },
        {
          "internalType": "uint256",
          "name": "mlScore",
          "type": "uint256"
        }
      ],
      "name": "updateReputation",
      "outputs": [],
      "stateMutability": "nonpayable",
      "type": "function"
    }
  ],
  "bytecode": "0x608060405234801561001057600080fd5b50600280546001600160a01b03191633179055611ab4806100326000396000f3fe608060405234801561001057600080fd5b50600436106100ea5760003560e01c80638da5cb5b1161008c578063e243eaf011610066578063e243eaf014610209578063e810132a1461022a578063f2fde38b14610258578063f5417ca21461026b57600080fd5b80638da5cb5b146101b6578063a1174e7d146101e1578063cae00bdc146101f657600080fd5b806339bf397e116100c857806339bf397e1461013f5780634665cb071461015057806361ca89fa146101635780637f839ef21461018357600080fd5b806319b24c71146100ef57806325d80f951461010457806327c6f43e1461012c575b600080fd5b6101026100fd3660046113ef565b610292565b005b61011761011236600461143d565b6104f2565b60405190151581526020015b60405180910390f35b61010261013a36600461143d565b61051f565b600154604051908152602001610123565b61010261015e36600461143d565b610729565b61017661017136600461147a565b6108e3565b60405161012391906114e3565b61019661019136600461143d565b61098f565b604080519485526020850193909352918301526060820152608001610123565b6002546101c9906001600160a01b031681565b6040516001600160a01b039091168152602001610123565b6101e9610a1e565b6040516101239190611552565b610102610204366004611565565b610af7565b61021c61021736600461147a565b610bfa565b6040516101239291906115bc565b61023d61023836600461143d565b6110c5565b60408051938452602084019290925290820152606001610123565b610102610266366004611613565b61117b565b61027e61027936600461143d565b61121d565b60405161012398979695949392919061163c565b826000816040516102a39190611687565b9081526040519081900360200190206004015460ff166102de5760405162461bcd60e51b81526004016102d5906116a3565b60405180910390fd5b83600081511161032a5760405162461bcd60e51b81526020600482015260176024820152764e6f64652049442063616e6e6f7420626520656d70747960481b60448201526064016102d5565b6103e884111561037c5760405162461bcd60e51b815260206004820181905260248201527f4d6f6e69746f72696e67207472757374206d757374206265203c3d203130303060448201526064016102d5565b6103e88311156103ce5760405162461bcd60e51b815260206004820152601860248201527f4d4c2073636f7265206d757374206265203c3d2031303030000000000000000060448201526064016102d5565b600060646103dd85603c6116f0565b6103e88760286116f0565b6103f2919061170d565b6103fc9190611720565b90508460008760405161040f9190611687565b908152602001604051809103902060020181905550836000876040516104359190611687565b9081526020016040518091039020600301819055508060008760405161045b9190611687565b908152602001604051809103902060010181905550426000876040516104819190611687565b908152604051908190036020018120600501919091556104a2908790611687565b6040805191829003822083835260208301889052908201869052907f5ef1d0e18571483a7be20ef1277d1d0b481301462c2ad3df3f728ec04afed3829060600160405180910390a2505050505050565b600080826040516105039190611687565b9081526040519081900360200190206004015460ff1692915050565b80600081511161056b5760405162461bcd60e51b81526020600482015260176024820152764e6f64652049442063616e6e6f7420626520656d70747960481b60448201526064016102d5565b60008260405161057b9190611687565b9081526040519081900360200190206004015460ff16156105de5760405162461bcd60e51b815260206004820152601760248201527f4e6f646520616c7265616479207265676973746572656400000000000000000060448201526064016102d5565b6040518061010001604052808381526020016101f481526020016101f481526020016101f481526020016001151581526020014281526020016000815260200160008152506000836040516106339190611687565b9081526040519081900360200190208151819061065090826117cb565b5060208201516001828101919091556040830151600283015560608301516003830155608083015160048301805460ff191691151591909117905560a0830151600583015560c0830151600683015560e090920151600790910155805480820182556000919091527fb10e2d527612073b26eecdfd717e6a320cf44b4afac2b0732d9fcbe2b7fa0cf6016106e483826117cb565b5060405133906106f5908490611687565b604051908190038120907fadaef954190750d73635ec98f9bfdf5a467c390a39c22a4d3f468c46af938d0490600090a35050565b6002546001600160a01b031633146107535760405162461bcd60e51b81526004016102d59061188b565b806000816040516107649190611687565b9081526040519081900360200190206004015460ff166107965760405162461bcd60e51b81526004016102d5906116a3565b60005b60015481101561087b578280519060200120600182815481106107be576107be6118cc565b906000526020600020016040516107d59190611955565b60405180910390200361086957600180546107f1908290611961565b81548110610801576108016118cc565b906000526020600020016001828154811061081e5761081e6118cc565b9060005260206000200190816108349190611974565b50600180548061084657610846611a4f565b60019003818190600052602060002001600061086291906112f6565b905561087b565b8061087381611a65565b915050610799565b5060008260405161088c9190611687565b90815260405190819003602001902060006108a782826112f6565b50600060018201819055600282018190556003820181905560048201805460ff1916905560058201819055600682018190556007909101555050565b600181815481106108f357600080fd5b90600052602060002001600091509050805461090e90611742565b80601f016020809104026020016040519081016040528092919081815260200182805461093a90611742565b80156109875780601f1061095c57610100808354040283529160200191610987565b820191906000526020600020905b81548152906001019060200180831161096a57829003601f168201915b505050505081565b600080600080846000816040516109a69190611687565b9081526040519081900360200190206004015460ff166109d85760405162461bcd60e51b81526004016102d5906116a3565b600080876040516109e99190611687565b908152602001604051809103902090508060010154816002015482600301548360050154955095509550955050509193509193565b60606001805480602002602001604051908101604052809291908181526020016000905b82821015610aee578382906000526020600020018054610a6190611742565b80601f0160208091040260200160405190810160405280929190818152602001828054610a8d90611742565b8015610ada5780601f10610aaf57610100808354040283529160200191610ada565b820191906000526020600020905b815481529060010190602001808311610abd57829003601f168201915b505050505081526020019060010190610a42565b50505050905090565b81600081604051610b089190611687565b9081526040519081900360200190206004015460ff16610b3a5760405162461bcd60e51b81526004016102d5906116a3565b600083604051610b4a9190611687565b9081526040519081900360200190206006018054906000610b6a83611a65565b91905055508115610bab57600083604051610b859190611687565b9081526040519081900360200190206007018054906000610ba583611a65565b91905055505b82604051610bb99190611687565b6040519081900381208315158252907f8565d30cc81861eddfcb6a69988388d215f501f5a97b7815ef0dc87a2675672e9060200160405180910390a2505050565b6001546060908190831115610c515760405162461bcd60e51b815260206004820152601b60248201527f4e2063616e6e6f742065786365656420746f74616c206e6f646573000000000060448201526064016102d5565b60015460009067ffffffffffffffff811115610c6f57610c6f61134c565b604051908082528060200260200182016040528015610ca257816020015b6060815260200190600190039081610c8d5790505b5060015490915060009067ffffffffffffffff811115610cc457610cc461134c565b604051908082528060200260200182016040528015610ced578160200160208202803683370190505b50905060005b600154811015610e2d5760018181548110610d1057610d106118cc565b906000526020600020018054610d2590611742565b80601f0160208091040260200160405190810160405280929190818152602001828054610d5190611742565b8015610d9e5780601f10610d7357610100808354040283529160200191610d9e565b820191906000526020600020905b815481529060010190602001808311610d8157829003601f168201915b5050505050838281518110610db557610db56118cc565b6020026020010181905250600060018281548110610dd557610dd56118cc565b90600052602060002001604051610dec9190611955565b908152602001604051809103902060010154828281518110610e1057610e106118cc565b602090810291909101015280610e2581611a65565b915050610cf3565b5060005b8151811015610f9d576000610e4782600161170d565b90505b8251811015610f8a57828181518110610e6557610e656118cc565b6020026020010151838381518110610e7f57610e7f6118cc565b60200260200101511015610f78576000848381518110610ea157610ea16118cc565b60200260200101519050848281518110610ebd57610ebd6118cc565b6020026020010151858481518110610ed757610ed76118cc565b602002602001018190525080858381518110610ef557610ef56118cc565b60200260200101819052506000848481518110610f1457610f146118cc565b60200260200101519050848381518110610f3057610f306118cc565b6020026020010151858581518110610f4a57610f4a6118cc565b60200260200101818152505080858481518110610f6957610f696118cc565b60200260200101818152505050505b80610f8281611a65565b915050610e4a565b5080610f9581611a65565b915050610e31565b508467ffffffffffffffff811115610fb757610fb761134c565b604051908082528060200260200182016040528015610fea57816020015b6060815260200190600190039081610fd55790505b5093508467ffffffffffffffff8111156110065761100661134c565b60405190808252806020026020018201604052801561102f578160200160208202803683370190505b50925060005b858110156110bd5782818151811061104f5761104f6118cc565b6020026020010151858281518110611069576110696118cc565b6020026020010181905250818181518110611086576110866118cc565b60200260200101518482815181106110a0576110a06118cc565b6020908102919091010152806110b581611a65565b915050611035565b505050915091565b6000806000836000816040516110db9190611687565b9081526040519081900360200190206004015460ff1661110d5760405162461bcd60e51b81526004016102d5906116a3565b6000808660405161111e9190611687565b90815260200160405180910390209050600080826006015411611142576000611161565b600682015460078301546111579060646116f0565b6111619190611720565b600683015460079093015492989297509550909350505050565b6002546001600160a01b031633146111a55760405162461bcd60e51b81526004016102d59061188b565b6001600160a01b0381166111fb5760405162461bcd60e51b815260206004820181905260248201527f4e6577206f776e65722063616e6e6f74206265207a65726f206164647265737360448201526064016102d5565b600280546001600160a01b0319166001600160a01b0392909216919091179055565b805160208183018101805160008252928201919093012091528054819061124390611742565b80601f016020809104026020016040519081016040528092919081815260200182805461126f90611742565b80156112bc5780601f10611291576101008083540402835291602001916112bc565b820191906000526020600020905b81548152906001019060200180831161129f57829003601f168201915b5050506001840154600285015460038601546004870154600588015460068901546007909901549798949793965091945060ff1692909188565b50805461130290611742565b6000825580601f10611312575050565b601f0160209004906000526020600020908101906113309190611333565b50565b5b808211156113485760008155600101611334565b5090565b634e487b7160e01b600052604160045260246000fd5b600082601f83011261137357600080fd5b813567ffffffffffffffff8082111561138e5761138e61134c565b604051601f8301601f19908116603f011681019082821181831017156113b6576113b661134c565b816040528381528660208588010111156113cf57600080fd5b836020870160208301376000602085830101528094505050505092915050565b60008060006060848603121561140457600080fd5b833567ffffffffffffffff81111561141b57600080fd5b61142786828701611362565b9660208601359650604090950135949350505050565b60006020828403121561144f57600080fd5b813567ffffffffffffffff81111561146657600080fd5b61147284828501611362565b949350505050565b60006020828403121561148c57600080fd5b5035919050565b60005b838110156114ae578181015183820152602001611496565b50506000910152565b600081518084526114cf816020860160208601611493565b601f01601f19169290920160200192915050565b6020815260006114f660208301846114b7565b9392505050565b600081518084526020808501808196508360051b8101915082860160005b858110156115455782840389526115338483516114b7565b9885019893509084019060010161151b565b5091979650505050505050565b6020815260006114f660208301846114fd565b6000806040838503121561157857600080fd5b823567ffffffffffffffff81111561158f57600080fd5b61159b85828601611362565b925050602083013580151581146115b157600080fd5b809150509250929050565b6040815260006115cf60408301856114fd565b82810360208481019190915284518083528582019282019060005b81811015611606578451835293830193918301916001016115ea565b5090979650505050505050565b60006020828403121561162557600080fd5b81356001600160a01b03811681146114f657600080fd5b60006101008083526116508184018c6114b7565b602084019a909a52505060408101969096526060860194909452911515608085015260a084015260c083015260e090910152919050565b60008251611699818460208701611493565b9190910192915050565b60208082526017908201527f4e6f6465206d7573742062652072656769737465726564000000000000000000604082015260600190565b634e487b7160e01b600052601160045260246000fd5b8082028115828204841417611707576117076116da565b92915050565b80820180821115611707576117076116da565b60008261173d57634e487b7160e01b600052601260045260246000fd5b500490565b600181811c9082168061175657607f821691505b60208210810361177657634e487b7160e01b600052602260045260246000fd5b50919050565b601f8211156117c657600081815260208120601f850160051c810160208610156117a35750805b601f850160051c820191505b818110156117c2578281556001016117af565b5050505b505050565b815167ffffffffffffffff8111156117e5576117e561134c565b6117f9816117f38454611742565b8461177c565b602080601f83116001811461182e57600084156118165750858301515b600019600386901b1c1916600185901b1785556117c2565b600085815260208120601f198616915b8281101561185d5788860151825594840194600190910190840161183e565b508582101561187b5787850151600019600388901b60f8161c191681555b5050505050600190811b01905550565b60208082526021908201527f4f6e6c79206f776e65722063616e2063616c6c20746869732066756e6374696f6040820152603760f91b606082015260800190565b634e487b7160e01b600052603260045260246000fd5b600081546118ef81611742565b60018281168015611907576001811461191c5761194b565b60ff198416875282151583028701945061194b565b8560005260208060002060005b858110156119425781548a820152908401908201611929565b50505082870194505b5050505092915050565b60006114f682846118e2565b81810381811115611707576117076116da565b81810361197f575050565b6119898254611742565b67ffffffffffffffff8111156119a1576119a161134c565b6119af816117f38454611742565b6000601f8211600181146119e357600083156119cb5750848201545b600019600385901b1c1916600184901b178455611a48565b600085815260209020601f19841690600086815260209020845b83811015611a1d57828601548255600195860195909101906020016119fd565b5085831015611a3b5781850154600019600388901b60f8161c191681555b50505060018360011b0184555b5050505050565b634e487b7160e01b600052603160045260246000fd5b600060018201611a7757611a776116da565b506001019056fea2646970667358221220517e7026157ccd10bc9c9ce2b557caee73fcb8fae7deca76b4ffb3c3662095a264736f6c63430008130033",
  "linkReferences": {},
  "deployedLinkReferences": {}
}